{
  "contractName": "DecentralBank",
  "abi": [
    {
      "inputs": [
        {
          "internalType": "contract RWD",
          "name": "_rwd",
          "type": "address"
        },
        {
          "internalType": "contract Tether",
          "name": "_tether",
          "type": "address"
        }
      ],
      "payable": false,
      "stateMutability": "nonpayable",
      "type": "constructor"
    },
    {
      "constant": true,
      "inputs": [
        {
          "internalType": "address",
          "name": "",
          "type": "address"
        }
      ],
      "name": "hasStaked",
      "outputs": [
        {
          "internalType": "bool",
          "name": "",
          "type": "bool"
        }
      ],
      "payable": false,
      "stateMutability": "view",
      "type": "function"
    },
    {
      "constant": true,
      "inputs": [
        {
          "internalType": "address",
          "name": "",
          "type": "address"
        }
      ],
      "name": "isStaking",
      "outputs": [
        {
          "internalType": "bool",
          "name": "",
          "type": "bool"
        }
      ],
      "payable": false,
      "stateMutability": "view",
      "type": "function"
    },
    {
      "constant": true,
      "inputs": [],
      "name": "name",
      "outputs": [
        {
          "internalType": "string",
          "name": "",
          "type": "string"
        }
      ],
      "payable": false,
      "stateMutability": "view",
      "type": "function"
    },
    {
      "constant": true,
      "inputs": [],
      "name": "owner",
      "outputs": [
        {
          "internalType": "address",
          "name": "",
          "type": "address"
        }
      ],
      "payable": false,
      "stateMutability": "view",
      "type": "function"
    },
    {
      "constant": true,
      "inputs": [],
      "name": "rwd",
      "outputs": [
        {
          "internalType": "contract RWD",
          "name": "",
          "type": "address"
        }
      ],
      "payable": false,
      "stateMutability": "view",
      "type": "function"
    },
    {
      "constant": true,
      "inputs": [
        {
          "internalType": "uint256",
          "name": "",
          "type": "uint256"
        }
      ],
      "name": "stakers",
      "outputs": [
        {
          "internalType": "address",
          "name": "",
          "type": "address"
        }
      ],
      "payable": false,
      "stateMutability": "view",
      "type": "function"
    },
    {
      "constant": true,
      "inputs": [
        {
          "internalType": "address",
          "name": "",
          "type": "address"
        }
      ],
      "name": "stakingBalance",
      "outputs": [
        {
          "internalType": "uint256",
          "name": "",
          "type": "uint256"
        }
      ],
      "payable": false,
      "stateMutability": "view",
      "type": "function"
    },
    {
      "constant": true,
      "inputs": [],
      "name": "tether",
      "outputs": [
        {
          "internalType": "contract Tether",
          "name": "",
          "type": "address"
        }
      ],
      "payable": false,
      "stateMutability": "view",
      "type": "function"
    }
  ],
  "bytecode": "0x60806040526040518060400160405280600e81526020017f446563656e7472616c2042616e6b0000000000000000000000000000000000008152506000908051906020019061004f929190610164565b5034801561005c57600080fd5b5060405161075d38038061075d8339818101604052604081101561007f57600080fd5b81019080805190602001909291908051906020019092919050505081600360006101000a81548173ffffffffffffffffffffffffffffffffffffffff021916908373ffffffffffffffffffffffffffffffffffffffff16021790555080600260006101000a81548173ffffffffffffffffffffffffffffffffffffffff021916908373ffffffffffffffffffffffffffffffffffffffff16021790555033600160006101000a81548173ffffffffffffffffffffffffffffffffffffffff021916908373ffffffffffffffffffffffffffffffffffffffff1602179055505050610209565b828054600181600116156101000203166002900490600052602060002090601f016020900481019282601f106101a557805160ff19168380011785556101d3565b828001600101855582156101d3579182015b828111156101d25782518255916020019190600101906101b7565b5b5090506101e091906101e4565b5090565b61020691905b808211156102025760008160009055506001016101ea565b5090565b90565b610545806102186000396000f3fe608060405234801561001057600080fd5b50600436106100885760003560e01c80636f49712b1161005b5780636f49712b146101fc5780638da5cb5b14610258578063c93c8f34146102a2578063fd5e6dd1146102fe57610088565b806306fdde031461008d5780631a8972d31461011057806345bc78ab1461015a5780635efc071a146101b2575b600080fd5b61009561036c565b6040518080602001828103825283818151815260200191508051906020019080838360005b838110156100d55780820151818401526020810190506100ba565b50505050905090810190601f1680156101025780820380516001836020036101000a031916815260200191505b509250505060405180910390f35b61011861040a565b604051808273ffffffffffffffffffffffffffffffffffffffff1673ffffffffffffffffffffffffffffffffffffffff16815260200191505060405180910390f35b61019c6004803603602081101561017057600080fd5b81019080803573ffffffffffffffffffffffffffffffffffffffff169060200190929190505050610430565b6040518082815260200191505060405180910390f35b6101ba610448565b604051808273ffffffffffffffffffffffffffffffffffffffff1673ffffffffffffffffffffffffffffffffffffffff16815260200191505060405180910390f35b61023e6004803603602081101561021257600080fd5b81019080803573ffffffffffffffffffffffffffffffffffffffff16906020019092919050505061046e565b604051808215151515815260200191505060405180910390f35b61026061048e565b604051808273ffffffffffffffffffffffffffffffffffffffff1673ffffffffffffffffffffffffffffffffffffffff16815260200191505060405180910390f35b6102e4600480360360208110156102b857600080fd5b81019080803573ffffffffffffffffffffffffffffffffffffffff1690602001909291905050506104b4565b604051808215151515815260200191505060405180910390f35b61032a6004803603602081101561031457600080fd5b81019080803590602001909291905050506104d4565b604051808273ffffffffffffffffffffffffffffffffffffffff1673ffffffffffffffffffffffffffffffffffffffff16815260200191505060405180910390f35b60008054600181600116156101000203166002900480601f0160208091040260200160405190810160405280929190818152602001828054600181600116156101000203166002900480156104025780601f106103d757610100808354040283529160200191610402565b820191906000526020600020905b8154815290600101906020018083116103e557829003601f168201915b505050505081565b600360009054906101000a900473ffffffffffffffffffffffffffffffffffffffff1681565b60056020528060005260406000206000915090505481565b600260009054906101000a900473ffffffffffffffffffffffffffffffffffffffff1681565b60076020528060005260406000206000915054906101000a900460ff1681565b600160009054906101000a900473ffffffffffffffffffffffffffffffffffffffff1681565b60066020528060005260406000206000915054906101000a900460ff1681565b600481815481106104e157fe5b906000526020600020016000915054906101000a900473ffffffffffffffffffffffffffffffffffffffff168156fea265627a7a72315820a7f3cbe6efeddee5aca54198384338bc1c55214c63d52b348ec5ded9a624fa7864736f6c63430005110032",
  "source": "pragma solidity ^0.5.0;\n\nimport './RWD.sol';\nimport './Tether.sol';\n\ncontract DecentralBank {\n  string public name = 'Decentral Bank';\n  address public owner;\n  Tether public tether;\n  RWD public rwd;\n\n  address[] public stakers;\n\n  mapping(address => uint) public stakingBalance;\n  mapping(address => bool) public hasStaked;\n  mapping(address => bool) public isStaking;\n\nconstructor(RWD _rwd, Tether _tether) public {\n    rwd = _rwd;\n    tether = _tether;\n    owner = msg.sender;\n}\n\n//   // staking function   \n// function depositTokens(uint _amount) public {\n\n//   // require staking amount to be greater than zero\n//     require(_amount > 0, 'amount cannot be 0');\n  \n//   // Transfer tether tokens to this contract address for staking\n//   tether.transferFrom(msg.sender, address(this), _amount);\n\n//   // Update Staking Balance\n//   stakingBalance[msg.sender] = stakingBalance[msg.sender] + _amount;\n\n//   if(!hasStaked[msg.sender]) {\n//     stakers.push(msg.sender);\n//   }\n\n//   // Update Staking Balance\n//     isStaking[msg.sender] = true;\n//     hasStaked[msg.sender] = true;\n// }\n\n//   // unstake tokens\n//   function unstakeTokens() public {\n//     uint balance = stakingBalance[msg.sender];\n//     // require the amount to be greater than zero\n//     require(balance > 0, 'staking balance cannot be less than zero');\n\n//     // transfer the tokens to the specified contract address from our bank\n//     tether.transfer(msg.sender, balance);\n\n//     // reset staking balance\n//     stakingBalance[msg.sender] = 0;\n\n//     // Update Staking Status\n//     isStaking[msg.sender] = false;\n\n//   }\n\n//   // issue rewards\n//         function issueTokens() public {\n//             // Only owner can call this function\n//             require(msg.sender == owner, 'caller must be the owner');\n\n//             // issue tokens to all stakers\n//             for (uint i=0; i<stakers.length; i++) {\n//                 address recipient = stakers[i]; \n//                 uint balance = stakingBalance[recipient] / 9;\n//                 if(balance > 0) {\n//                 rwd.transfer(recipient, balance);\n//             }\n//        }\n//        }\n}",
  "sourcePath": "/Users/pankajchaudhary/Documents/workspace/web3/defi-staking/src/contracts/DecentralBank.sol",
  "compiler": {
    "name": "solc",
    "version": "0.5.17+commit.d19bba13.Emscripten.clang"
  },
  "schemaVersion": "3.4.9",
  "updatedAt": "2022-09-17T10:42:23.888Z",
  "devdoc": {
    "methods": {}
  },
  "userdoc": {
    "methods": {}
  }
}